:1000000010C01FC01EC01DC01CC01BC01AC019C01C
:1000100018C017C016C015C014C013C012C011C03C
:1000200010C011241FBECFE5D1E0DEBFCDBF10E070
:10003000A0E6B0E001C01D92A236B107E1F76ED094
:1000400086C0DECF1092600011C0DA9AD89A85E897
:100050008A95F1F70000DA98D8988AE18A95F1F745
:1000600000C0809160008F5F80936000809160008D
:10007000883C58F308951092600011C0DA9AD99A1A
:1000800085E88A95F1F70000DA98D9988AE18A958F
:10009000F1F700C0809160008F5F809360008091D5
:1000A0006000883C58F308951092600011C0DB9AFC
:1000B000D89A85E88A95F1F70000DB98D8988AE10C
:1000C0008A95F1F700C0809160008F5F8093600097
:1000D00080916000883C58F308951092600011C030
:1000E000DB9AD99A85E88A95F1F70000DB98D998D0
:1000F0008AE18A95F1F700C0809160008F5F80935C
:10010000600080916000883C58F308959BDFB3DF66
:10011000E4DFCACFC9DFE1DFAEDF94CF80E886BD80
:1001200016BCD898D09AD998D19ADA98D29ADB98F6
:10013000D39A1092610006C0EDDF809161008F5F5D
:1001400080936100809161008233B0F3F2CFF89424
:02015000FFCFDF
:00000001FF
