:1000000010C01FC01EC01DC01CC01BC01AC019C01C
:1000100018C017C016C015C014C013C012C011C03C
:1000200010C011241FBECFE5D1E0DEBFCDBF10E070
:10003000A0E6B0E001C01D92A336B107E1F766D09B
:10004000C2C0DECF109260000FC0DA9A85E88A95B0
:10005000F1F70000DA988AE18A95F1F700C0809103
:1000600060008F5F8093600080916000883C68F33F
:100070000895109260000FC0D99A85E88A95F1F72B
:100080000000D9988AE18A95F1F700C0809160005C
:100090008F5F8093600080916000883C68F30895D2
:1000A000109260000FC0DB9A85E88A95F1F7000096
:1000B000DB988AE18A95F1F700C0809160008F5F3C
:1000C0008093600080916000883C68F308951092EE
:1000D00060000FC0D89A85E88A95F1F70000D8989B
:1000E0008AE18A95F1F700C0809160008F5F80936C
:1000F000600080916000883C68F30895A3DFB9DF59
:10010000CFDFE5CFE4DFCCDFB4DF9CCF80E886BD76
:1001100016BCD898D09AD998D19ADA98D29ADB9806
:10012000D39ACAE01092610021C01092620006C00A
:10013000E5DF809162008F5F8093620090916200A2
:10014000809161009817A0F31092620006C0DADF78
:10015000809162008F5F8093620080916100909136
:1001600062009817A0F38F5F809361008091610017
:100170008A30D8F2C093610021C01092620006C09C
:10018000BDDF809162008F5F80936200909162007A
:10019000809161009817A0F31092620006C0B2DF50
:1001A000809162008F5F80936200809161009091E6
:1001B00062009817A0F381508093610080916100E4
:0A01C0008111DBCFAFCFF894FFCF21
:00000001FF
